{
  "transactions": [
    {
      "hash": "0x55baabf8d2bac35efa0a5bec49527fbe425632ca1cc12826eb7418b71dd6b478",
      "transactionType": "CALL",
      "contractName": null,
      "contractAddress": "0x242bff12ca9d167862c0b40e034d12f38f46d8aa",
      "function": "approve(address,uint256)",
      "arguments": [
        "0x000000000022D473030F116dDEE9F6B43aC78BA3",
        "115792089237316195423570985008687907853269984665640564039457584007913129639935"
      ],
      "transaction": {
        "from": "0x8fe6509e8e7954b4848772e989829a958805a2b4",
        "to": "0x242bff12ca9d167862c0b40e034d12f38f46d8aa",
        "gas": "0x116d9",
        "value": "0x0",
        "input": "0x095ea7b3000000000000000000000000000000000022d473030f116ddee9f6b43ac78ba3ffffffffffffffffffffffffffffffffffffffffffffffffffffffffffffffff",
        "nonce": "0x11",
        "chainId": "0x515"
      },
      "additionalContracts": [],
      "isFixedGasLimit": false
    },
    {
      "hash": "0x65e9c85aeedafe092ed7bf71ce36237bc243040d939b21996143cd47dbe40b3d",
      "transactionType": "CALL",
      "contractName": null,
      "contractAddress": "0x000000000022d473030f116ddee9f6b43ac78ba3",
      "function": "approve(address,address,uint160,uint48)",
      "arguments": [
        "0x242BFf12ca9d167862c0b40E034D12F38f46D8aA",
        "0xf969Aee60879C54bAAed9F3eD26147Db216Fd664",
        "1461501637330902918203684832716283019655932542975",
        "281474976710655"
      ],
      "transaction": {
        "from": "0x8fe6509e8e7954b4848772e989829a958805a2b4",
        "to": "0x000000000022d473030f116ddee9f6b43ac78ba3",
        "gas": "0x1112d",
        "value": "0x0",
        "input": "0x87517c45000000000000000000000000242bff12ca9d167862c0b40e034d12f38f46d8aa000000000000000000000000f969aee60879c54baaed9f3ed26147db216fd664000000000000000000000000ffffffffffffffffffffffffffffffffffffffff0000000000000000000000000000000000000000000000000000ffffffffffff",
        "nonce": "0x12",
        "chainId": "0x515"
      },
      "additionalContracts": [],
      "isFixedGasLimit": false
    },
    {
      "hash": "0x8624fe75bbc0d79455337352f1484603fa2e1f47df74a7517e6a23f996dc7fd5",
      "transactionType": "CALL",
      "contractName": null,
      "contractAddress": "0xf969aee60879c54baaed9f3ed26147db216fd664",
      "function": "multicall(bytes[])",
      "arguments": [
        "[0xf70204050000000000000000000000000000000000000000000000000000000000000000000000000000000000000000242bff12ca9d167862c0b40e034d12f38f46d8aa0000000000000000000000000000000000000000000000000000000000000bb8000000000000000000000000000000000000000000000000000000000000003c000000000000000000000000cca86e4bec829a11c362cc3419b2701a753d8ac00000000000000000000000000000000000001d8700000000000000000000000000000000000000000000000000000000000000000000000000000000000000e00000000000000000000000000000000000000000000000000000000000000000, 0xdd46508f00000000000000000000000000000000000000000000000000000000000000400000000000000000000000000000000000000000000000000000000068d80fcf0000000000000000000000000000000000000000000000000000000000000400000000000000000000000000000000000000000000000000000000000000004000000000000000000000000000000000000000000000000000000000000000800000000000000000000000000000000000000000000000000000000000000004020d14140000000000000000000000000000000000000000000000000000000000000000000000000000000000000000000000000000000000000000000000040000000000000000000000000000000000000000000000000000000000000080000000000000000000000000000000000000000000000000000000000000024000000000000000000000000000000000000000000000000000000000000002a0000000000000000000000000000000000000000000000000000000000000030000000000000000000000000000000000000000000000000000000000000001a00000000000000000000000000000000000000000000000000000000000000000000000000000000000000000242bff12ca9d167862c0b40e034d12f38f46d8aa0000000000000000000000000000000000000000000000000000000000000bb8000000000000000000000000000000000000000000000000000000000000003c000000000000000000000000cca86e4bec829a11c362cc3419b2701a753d8ac000000000000000000000000000000000000000000000000000000000000209b80000000000000000000000000000000000000000000000000000000000036948000000000000000000000000000000000000000000000642c60af736339a2a2400000000000000000000000000000000000000000000000030b60667399f0000000000000000000000000000000000000000000000a64367d55ee693690000000000000000000000000000008fe6509e8e7954b4848772e989829a958805a2b40000000000000000000000000000000000000000000000000000000000000180000000000000000000000000000000000000000000000000000000000000000000000000000000000000000000000000000000000000000000000000000000400000000000000000000000000000000000000000000000000000000000000000000000000000000000000000242bff12ca9d167862c0b40e034d12f38f46d8aa000000000000000000000000000000000000000000000000000000000000004000000000000000000000000000000000000000000000000000000000000000000000000000000000000000008fe6509e8e7954b4848772e989829a958805a2b40000000000000000000000000000000000000000000000000000000000000040000000000000000000000000242bff12ca9d167862c0b40e034d12f38f46d8aa0000000000000000000000008fe6509e8e7954b4848772e989829a958805a2b4]"
      ],
      "transaction": {
        "from": "0x8fe6509e8e7954b4848772e989829a958805a2b4",
        "to": "0xf969aee60879c54baaed9f3ed26147db216fd664",
        "gas": "0xa35db",
        "value": "0x30b60667399f0000",
        "input": "0xac9650d800000000000000000000000000000000000000000000000000000000000000200000000000000000000000000000000000000000000000000000000000000002000000000000000000000000000000000000000000000000000000000000004000000000000000000000000000000000000000000000000000000000000001800000000000000000000000000000000000000000000000000000000000000104f70204050000000000000000000000000000000000000000000000000000000000000000000000000000000000000000242bff12ca9d167862c0b40e034d12f38f46d8aa0000000000000000000000000000000000000000000000000000000000000bb8000000000000000000000000000000000000000000000000000000000000003c000000000000000000000000cca86e4bec829a11c362cc3419b2701a753d8ac00000000000000000000000000000000000001d8700000000000000000000000000000000000000000000000000000000000000000000000000000000000000e00000000000000000000000000000000000000000000000000000000000000000000000000000000000000000000000000000000000000000000000000000000000000000000000000000000000000000000000000000000000000464dd46508f00000000000000000000000000000000000000000000000000000000000000400000000000000000000000000000000000000000000000000000000068d80fcf0000000000000000000000000000000000000000000000000000000000000400000000000000000000000000000000000000000000000000000000000000004000000000000000000000000000000000000000000000000000000000000000800000000000000000000000000000000000000000000000000000000000000004020d14140000000000000000000000000000000000000000000000000000000000000000000000000000000000000000000000000000000000000000000000040000000000000000000000000000000000000000000000000000000000000080000000000000000000000000000000000000000000000000000000000000024000000000000000000000000000000000000000000000000000000000000002a0000000000000000000000000000000000000000000000000000000000000030000000000000000000000000000000000000000000000000000000000000001a00000000000000000000000000000000000000000000000000000000000000000000000000000000000000000242bff12ca9d167862c0b40e034d12f38f46d8aa0000000000000000000000000000000000000000000000000000000000000bb8000000000000000000000000000000000000000000000000000000000000003c000000000000000000000000cca86e4bec829a11c362cc3419b2701a753d8ac000000000000000000000000000000000000000000000000000000000000209b80000000000000000000000000000000000000000000000000000000000036948000000000000000000000000000000000000000000000642c60af736339a2a2400000000000000000000000000000000000000000000000030b60667399f0000000000000000000000000000000000000000000000a64367d55ee693690000000000000000000000000000008fe6509e8e7954b4848772e989829a958805a2b40000000000000000000000000000000000000000000000000000000000000180000000000000000000000000000000000000000000000000000000000000000000000000000000000000000000000000000000000000000000000000000000400000000000000000000000000000000000000000000000000000000000000000000000000000000000000000242bff12ca9d167862c0b40e034d12f38f46d8aa000000000000000000000000000000000000000000000000000000000000004000000000000000000000000000000000000000000000000000000000000000000000000000000000000000008fe6509e8e7954b4848772e989829a958805a2b40000000000000000000000000000000000000000000000000000000000000040000000000000000000000000242bff12ca9d167862c0b40e034d12f38f46d8aa0000000000000000000000008fe6509e8e7954b4848772e989829a958805a2b400000000000000000000000000000000000000000000000000000000",
        "nonce": "0x13",
        "chainId": "0x515"
      },
      "additionalContracts": [],
      "isFixedGasLimit": false
    }
  ],
  "receipts": [
    {
      "status": "0x1",
      "cumulativeGasUsed": "0x1c83f",
      "logs": [
        {
          "address": "0x242bff12ca9d167862c0b40e034d12f38f46d8aa",
          "topics": [
            "0x8c5be1e5ebec7d5bd14f71427d1e84f3dd0314c0f7b2291e5b200ac8c7c3b925",
            "0x0000000000000000000000008fe6509e8e7954b4848772e989829a958805a2b4",
            "0x000000000000000000000000000000000022d473030f116ddee9f6b43ac78ba3"
          ],
          "data": "0xffffffffffffffffffffffffffffffffffffffffffffffffffffffffffffffff",
          "blockHash": "0xbbc4351d84aecbb24bc4a55f928b59c32818b3d67a5d37be5106a2826d6f0f3f",
          "blockNumber": "0x1ea549f",
          "blockTimestamp": "0x68d801eb",
          "transactionHash": "0x55baabf8d2bac35efa0a5bec49527fbe425632ca1cc12826eb7418b71dd6b478",
          "transactionIndex": "0x2",
          "logIndex": "0x0",
          "removed": false
        }
      ],
      "logsBloom": "0x00000000000000000000000000000000000000000000000000000000000000000000000000000000000000000000000000000000800000000000000000200000000000000020000000004000000000000000000000000800020000000000000000002000000000000000000000000000000000000000000000000000000000000000000000000000000000000000000000000000000000000000000000000000020000000000000000000000000000000000000000000000000000000000000000000000000000000000000000000000000000000000000000000000000000000010000000000000000000800000000000000000000040000000000000000000",
      "type": "0x2",
      "transactionHash": "0x55baabf8d2bac35efa0a5bec49527fbe425632ca1cc12826eb7418b71dd6b478",
      "transactionIndex": "0x2",
      "blockHash": "0xbbc4351d84aecbb24bc4a55f928b59c32818b3d67a5d37be5106a2826d6f0f3f",
      "blockNumber": "0x1ea549f",
      "gasUsed": "0xbeab",
      "effectiveGasPrice": "0xf433d",
      "from": "0x8fe6509e8e7954b4848772e989829a958805a2b4",
      "to": "0x242bff12ca9d167862c0b40e034d12f38f46d8aa",
      "contractAddress": null,
      "l1BaseFeeScalar": "0x7d0",
      "l1BlobBaseFee": "0x1",
      "l1BlobBaseFeeScalar": "0xdbba0",
      "l1Fee": "0x7d",
      "l1GasPrice": "0xb",
      "l1GasUsed": "0x640"
    },
    {
      "status": "0x1",
      "cumulativeGasUsed": "0x28309",
      "logs": [
        {
          "address": "0x000000000022d473030f116ddee9f6b43ac78ba3",
          "topics": [
            "0xda9fa7c1b00402c17d0161b249b1ab8bbec047c5a52207b9c112deffd817036b",
            "0x0000000000000000000000008fe6509e8e7954b4848772e989829a958805a2b4",
            "0x000000000000000000000000242bff12ca9d167862c0b40e034d12f38f46d8aa",
            "0x000000000000000000000000f969aee60879c54baaed9f3ed26147db216fd664"
          ],
          "data": "0x000000000000000000000000ffffffffffffffffffffffffffffffffffffffff0000000000000000000000000000000000000000000000000000ffffffffffff",
          "blockHash": "0xbbc4351d84aecbb24bc4a55f928b59c32818b3d67a5d37be5106a2826d6f0f3f",
          "blockNumber": "0x1ea549f",
          "blockTimestamp": "0x68d801eb",
          "transactionHash": "0x65e9c85aeedafe092ed7bf71ce36237bc243040d939b21996143cd47dbe40b3d",
          "transactionIndex": "0x3",
          "logIndex": "0x1",
          "removed": false
        }
      ],
      "logsBloom": "0x00010000000000000000000000000000000000000000000000000000000000000000000000000000000000000000000000000000000000000000000000080000000000000020000000000000000000000000000000000000020000001000000000000000000000000000000000000000000000000040000000000000000000000020000000000000000000000000000000000000000000000000000000000000000000000000000000000000000000000000000000000000000000080000000000000000010000000000000000000000000000000000000040000000000000001000000000000000000000000080000000000000000000000000000000002400",
      "type": "0x2",
      "transactionHash": "0x65e9c85aeedafe092ed7bf71ce36237bc243040d939b21996143cd47dbe40b3d",
      "transactionIndex": "0x3",
      "blockHash": "0xbbc4351d84aecbb24bc4a55f928b59c32818b3d67a5d37be5106a2826d6f0f3f",
      "blockNumber": "0x1ea549f",
      "gasUsed": "0xbaca",
      "effectiveGasPrice": "0xf433d",
      "from": "0x8fe6509e8e7954b4848772e989829a958805a2b4",
      "to": "0x000000000022d473030f116ddee9f6b43ac78ba3",
      "contractAddress": null,
      "l1BaseFeeScalar": "0x7d0",
      "l1BlobBaseFee": "0x1",
      "l1BlobBaseFeeScalar": "0xdbba0",
      "l1Fee": "0x8b",
      "l1GasPrice": "0xb",
      "l1GasUsed": "0x6f5"
    },
    {
      "status": "0x1",
      "cumulativeGasUsed": "0x81aa9",
      "logs": [
        {
          "address": "0x00b036b58a818b1bc34d502d3fe730db729e62ac",
          "topics": [
            "0xdd466e674ea557f56295e2d0218a125ea4b4f0f6f3307b95f85e6110838d6438",
            "0x26102354b59870646d64342b48e8094eda5922ef5f43dcb151a258caaa47b71e",
            "0x0000000000000000000000000000000000000000000000000000000000000000",
            "0x000000000000000000000000242bff12ca9d167862c0b40e034d12f38f46d8aa"
          ],
          "data": "0x0000000000000000000000000000000000000000000000000000000000000bb8000000000000000000000000000000000000000000000000000000000000003c000000000000000000000000cca86e4bec829a11c362cc3419b2701a753d8ac00000000000000000000000000000000000001d87000000000000000000000000000000000000000000000000000000000000000000000000000000000002b9ba",
          "blockHash": "0x98cbe59167d92b5d68261c37ee105d1b51632c71fe24f7c46550362f13b77f54",
          "blockNumber": "0x1ea54a0",
          "blockTimestamp": "0x68d801ec",
          "transactionHash": "0x8624fe75bbc0d79455337352f1484603fa2e1f47df74a7517e6a23f996dc7fd5",
          "transactionIndex": "0x2",
          "logIndex": "0x0",
          "removed": false
        },
        {
          "address": "0xf969aee60879c54baaed9f3ed26147db216fd664",
          "topics": [
            "0xddf252ad1be2c89b69c2b068fc378daa952ba7f163c4a11628f55a4df523b3ef",
            "0x0000000000000000000000000000000000000000000000000000000000000000",
            "0x0000000000000000000000008fe6509e8e7954b4848772e989829a958805a2b4",
            "0x00000000000000000000000000000000000000000000000000000000000015d6"
          ],
          "data": "0x",
          "blockHash": "0x98cbe59167d92b5d68261c37ee105d1b51632c71fe24f7c46550362f13b77f54",
          "blockNumber": "0x1ea54a0",
          "blockTimestamp": "0x68d801ec",
          "transactionHash": "0x8624fe75bbc0d79455337352f1484603fa2e1f47df74a7517e6a23f996dc7fd5",
          "transactionIndex": "0x2",
          "logIndex": "0x1",
          "removed": false
        },
        {
          "address": "0x00b036b58a818b1bc34d502d3fe730db729e62ac",
          "topics": [
            "0xf208f4912782fd25c7f114ca3723a2d5dd6f3bcc3ac8db5af63baa85f711d5ec",
            "0x26102354b59870646d64342b48e8094eda5922ef5f43dcb151a258caaa47b71e",
            "0x000000000000000000000000f969aee60879c54baaed9f3ed26147db216fd664"
          ],
          "data": "0x00000000000000000000000000000000000000000000000000000000000209b80000000000000000000000000000000000000000000000000000000000036948000000000000000000000000000000000000000000000642c60af736339a2a2400000000000000000000000000000000000000000000000000000000000015d6",
          "blockHash": "0x98cbe59167d92b5d68261c37ee105d1b51632c71fe24f7c46550362f13b77f54",
          "blockNumber": "0x1ea54a0",
          "blockTimestamp": "0x68d801ec",
          "transactionHash": "0x8624fe75bbc0d79455337352f1484603fa2e1f47df74a7517e6a23f996dc7fd5",
          "transactionIndex": "0x2",
          "logIndex": "0x2",
          "removed": false
        },
        {
          "address": "0x242bff12ca9d167862c0b40e034d12f38f46d8aa",
          "topics": [
            "0xddf252ad1be2c89b69c2b068fc378daa952ba7f163c4a11628f55a4df523b3ef",
            "0x0000000000000000000000008fe6509e8e7954b4848772e989829a958805a2b4",
            "0x00000000000000000000000000b036b58a818b1bc34d502d3fe730db729e62ac"
          ],
          "data": "0x000000000000000000000000000000000000000000a56fa5b99019a5c7fff589",
          "blockHash": "0x98cbe59167d92b5d68261c37ee105d1b51632c71fe24f7c46550362f13b77f54",
          "blockNumber": "0x1ea54a0",
          "blockTimestamp": "0x68d801ec",
          "transactionHash": "0x8624fe75bbc0d79455337352f1484603fa2e1f47df74a7517e6a23f996dc7fd5",
          "transactionIndex": "0x2",
          "logIndex": "0x3",
          "removed": false
        }
      ],
      "logsBloom": "0x00000000000000000000000000000000000000000000000400000000000000000000000000000000000000000000000000000000801000000000000000000000000000000020000000000008000000000000000000000000030000001000000000002000020000000000000000004800000000000040000000000010000000000000000001000008000000000008000000000001000000000000000000200000000004000000000000000000000000000800000000000020000000000000002000000002090000000000000000000000000004000000000000000000000020005000000000000000000000800080000004040000000042000000000000002010",
      "type": "0x2",
      "transactionHash": "0x8624fe75bbc0d79455337352f1484603fa2e1f47df74a7517e6a23f996dc7fd5",
      "transactionIndex": "0x2",
      "blockHash": "0x98cbe59167d92b5d68261c37ee105d1b51632c71fe24f7c46550362f13b77f54",
      "blockNumber": "0x1ea54a0",
      "gasUsed": "0x6fb41",
      "effectiveGasPrice": "0xf433d",
      "from": "0x8fe6509e8e7954b4848772e989829a958805a2b4",
      "to": "0xf969aee60879c54baaed9f3ed26147db216fd664",
      "contractAddress": null,
      "l1BaseFeeScalar": "0x7d0",
      "l1BlobBaseFee": "0x1",
      "l1BlobBaseFeeScalar": "0xdbba0",
      "l1Fee": "0x1a4",
      "l1GasPrice": "0xb",
      "l1GasUsed": "0x14f8"
    }
  ],
  "libraries": [],
  "pending": [],
  "returns": {},
  "timestamp": 1758986733,
  "chain": 1301,
  "commit": "cac8d12"
}