{
  "transactions": [
    {
      "hash": "0x2850c4131c411651d9380bc965e9442262b57100550a5f3b8327949c8a9ba874",
      "transactionType": "CALL",
      "contractName": null,
      "contractAddress": "0x2c0bfe46ca92779137718d47e2dd843d31d491b7",
      "function": "approve(address,uint256)",
      "arguments": [
        "0x000000000022D473030F116dDEE9F6B43aC78BA3",
        "115792089237316195423570985008687907853269984665640564039457584007913129639935"
      ],
      "transaction": {
        "from": "0x8fe6509e8e7954b4848772e989829a958805a2b4",
        "to": "0x2c0bfe46ca92779137718d47e2dd843d31d491b7",
        "gas": "0x116d9",
        "value": "0x0",
        "input": "0x095ea7b3000000000000000000000000000000000022d473030f116ddee9f6b43ac78ba3ffffffffffffffffffffffffffffffffffffffffffffffffffffffffffffffff",
        "nonce": "0xe",
        "chainId": "0x515"
      },
      "additionalContracts": [],
      "isFixedGasLimit": false
    },
    {
      "hash": "0x2ff43ea5f9e05bfed076ee5b0b5e01415fd9e433dbdc6e0ca52bfa333f1d6c05",
      "transactionType": "CALL",
      "contractName": null,
      "contractAddress": "0x000000000022d473030f116ddee9f6b43ac78ba3",
      "function": "approve(address,address,uint160,uint48)",
      "arguments": [
        "0x2c0bFe46cA92779137718d47e2DD843d31D491B7",
        "0xf969Aee60879C54bAAed9F3eD26147Db216Fd664",
        "1461501637330902918203684832716283019655932542975",
        "281474976710655"
      ],
      "transaction": {
        "from": "0x8fe6509e8e7954b4848772e989829a958805a2b4",
        "to": "0x000000000022d473030f116ddee9f6b43ac78ba3",
        "gas": "0x1112d",
        "value": "0x0",
        "input": "0x87517c450000000000000000000000002c0bfe46ca92779137718d47e2dd843d31d491b7000000000000000000000000f969aee60879c54baaed9f3ed26147db216fd664000000000000000000000000ffffffffffffffffffffffffffffffffffffffff0000000000000000000000000000000000000000000000000000ffffffffffff",
        "nonce": "0xf",
        "chainId": "0x515"
      },
      "additionalContracts": [],
      "isFixedGasLimit": false
    },
    {
      "hash": "0x1257d8c8a6e13f059b8866ab6426cb7a3c5d68f280ccd00b3d42c1ff929a864d",
      "transactionType": "CALL",
      "contractName": null,
      "contractAddress": "0xf969aee60879c54baaed9f3ed26147db216fd664",
      "function": "multicall(bytes[])",
      "arguments": [
        "[0xf702040500000000000000000000000000000000000000000000000000000000000000000000000000000000000000002c0bfe46ca92779137718d47e2dd843d31d491b70000000000000000000000000000000000000000000000000000000000000bb8000000000000000000000000000000000000000000000000000000000000003c00000000000000000000000000000000000000000000000000000000000000000000000000000000000000000000000000001d8700000000000000000000000000000000000000000000000000000000000000000000000000000000000000e00000000000000000000000000000000000000000000000000000000000000000, 0xdd46508f00000000000000000000000000000000000000000000000000000000000000400000000000000000000000000000000000000000000000000000000068d80d3e0000000000000000000000000000000000000000000000000000000000000400000000000000000000000000000000000000000000000000000000000000004000000000000000000000000000000000000000000000000000000000000000800000000000000000000000000000000000000000000000000000000000000004020d14140000000000000000000000000000000000000000000000000000000000000000000000000000000000000000000000000000000000000000000000040000000000000000000000000000000000000000000000000000000000000080000000000000000000000000000000000000000000000000000000000000024000000000000000000000000000000000000000000000000000000000000002a0000000000000000000000000000000000000000000000000000000000000030000000000000000000000000000000000000000000000000000000000000001a000000000000000000000000000000000000000000000000000000000000000000000000000000000000000002c0bfe46ca92779137718d47e2dd843d31d491b70000000000000000000000000000000000000000000000000000000000000bb8000000000000000000000000000000000000000000000000000000000000003c000000000000000000000000000000000000000000000000000000000000000000000000000000000000000000000000000000000000000000000000000209b80000000000000000000000000000000000000000000000000000000000036948000000000000000000000000000000000000000000000642c60af736339a2a2400000000000000000000000000000000000000000000000030b60667399f0000000000000000000000000000000000000000000000a64367d55ee693690000000000000000000000000000008fe6509e8e7954b4848772e989829a958805a2b400000000000000000000000000000000000000000000000000000000000001800000000000000000000000000000000000000000000000000000000000000000000000000000000000000000000000000000000000000000000000000000004000000000000000000000000000000000000000000000000000000000000000000000000000000000000000002c0bfe46ca92779137718d47e2dd843d31d491b7000000000000000000000000000000000000000000000000000000000000004000000000000000000000000000000000000000000000000000000000000000000000000000000000000000008fe6509e8e7954b4848772e989829a958805a2b400000000000000000000000000000000000000000000000000000000000000400000000000000000000000002c0bfe46ca92779137718d47e2dd843d31d491b70000000000000000000000008fe6509e8e7954b4848772e989829a958805a2b4]"
      ],
      "transaction": {
        "from": "0x8fe6509e8e7954b4848772e989829a958805a2b4",
        "to": "0xf969aee60879c54baaed9f3ed26147db216fd664",
        "gas": "0x91b24",
        "value": "0x30b60667399f0000",
        "input": "0xac9650d800000000000000000000000000000000000000000000000000000000000000200000000000000000000000000000000000000000000000000000000000000002000000000000000000000000000000000000000000000000000000000000004000000000000000000000000000000000000000000000000000000000000001800000000000000000000000000000000000000000000000000000000000000104f702040500000000000000000000000000000000000000000000000000000000000000000000000000000000000000002c0bfe46ca92779137718d47e2dd843d31d491b70000000000000000000000000000000000000000000000000000000000000bb8000000000000000000000000000000000000000000000000000000000000003c00000000000000000000000000000000000000000000000000000000000000000000000000000000000000000000000000001d8700000000000000000000000000000000000000000000000000000000000000000000000000000000000000e00000000000000000000000000000000000000000000000000000000000000000000000000000000000000000000000000000000000000000000000000000000000000000000000000000000000000000000000000000000000000464dd46508f00000000000000000000000000000000000000000000000000000000000000400000000000000000000000000000000000000000000000000000000068d80d3e0000000000000000000000000000000000000000000000000000000000000400000000000000000000000000000000000000000000000000000000000000004000000000000000000000000000000000000000000000000000000000000000800000000000000000000000000000000000000000000000000000000000000004020d14140000000000000000000000000000000000000000000000000000000000000000000000000000000000000000000000000000000000000000000000040000000000000000000000000000000000000000000000000000000000000080000000000000000000000000000000000000000000000000000000000000024000000000000000000000000000000000000000000000000000000000000002a0000000000000000000000000000000000000000000000000000000000000030000000000000000000000000000000000000000000000000000000000000001a000000000000000000000000000000000000000000000000000000000000000000000000000000000000000002c0bfe46ca92779137718d47e2dd843d31d491b70000000000000000000000000000000000000000000000000000000000000bb8000000000000000000000000000000000000000000000000000000000000003c000000000000000000000000000000000000000000000000000000000000000000000000000000000000000000000000000000000000000000000000000209b80000000000000000000000000000000000000000000000000000000000036948000000000000000000000000000000000000000000000642c60af736339a2a2400000000000000000000000000000000000000000000000030b60667399f0000000000000000000000000000000000000000000000a64367d55ee693690000000000000000000000000000008fe6509e8e7954b4848772e989829a958805a2b400000000000000000000000000000000000000000000000000000000000001800000000000000000000000000000000000000000000000000000000000000000000000000000000000000000000000000000000000000000000000000000004000000000000000000000000000000000000000000000000000000000000000000000000000000000000000002c0bfe46ca92779137718d47e2dd843d31d491b7000000000000000000000000000000000000000000000000000000000000004000000000000000000000000000000000000000000000000000000000000000000000000000000000000000008fe6509e8e7954b4848772e989829a958805a2b400000000000000000000000000000000000000000000000000000000000000400000000000000000000000002c0bfe46ca92779137718d47e2dd843d31d491b70000000000000000000000008fe6509e8e7954b4848772e989829a958805a2b400000000000000000000000000000000000000000000000000000000",
        "nonce": "0x10",
        "chainId": "0x515"
      },
      "additionalContracts": [],
      "isFixedGasLimit": false
    }
  ],
  "receipts": [
    {
      "status": "0x1",
      "cumulativeGasUsed": "0x1c83f",
      "logs": [
        {
          "address": "0x2c0bfe46ca92779137718d47e2dd843d31d491b7",
          "topics": [
            "0x8c5be1e5ebec7d5bd14f71427d1e84f3dd0314c0f7b2291e5b200ac8c7c3b925",
            "0x0000000000000000000000008fe6509e8e7954b4848772e989829a958805a2b4",
            "0x000000000000000000000000000000000022d473030f116ddee9f6b43ac78ba3"
          ],
          "data": "0xffffffffffffffffffffffffffffffffffffffffffffffffffffffffffffffff",
          "blockHash": "0x78d89323e5e46816c0e07328e7d1a403f3796f2c86930c4a7895f62f41049c0a",
          "blockNumber": "0x1ea51ff",
          "blockTimestamp": "0x68d7ff4b",
          "transactionHash": "0x2850c4131c411651d9380bc965e9442262b57100550a5f3b8327949c8a9ba874",
          "transactionIndex": "0x2",
          "logIndex": "0x0",
          "removed": false
        }
      ],
      "logsBloom": "0x00000000000000000000000000000000000000000000000000000000040000000000000000000000000000000000000000000000800000000000000000200000000000000020000000004000000000000000000000000800020000000000000000000000000000000000000000000000000000000000000000000000000000000000000000000000000000000000000000000000000000000000000000000000020000000000000000000000000080000000000000000000000000000004000000000000000000000000000000000000000000000000000000000000000000000010000000000000000000000000000000000000000000000000000000000000",
      "type": "0x2",
      "transactionHash": "0x2850c4131c411651d9380bc965e9442262b57100550a5f3b8327949c8a9ba874",
      "transactionIndex": "0x2",
      "blockHash": "0x78d89323e5e46816c0e07328e7d1a403f3796f2c86930c4a7895f62f41049c0a",
      "blockNumber": "0x1ea51ff",
      "gasUsed": "0xbeab",
      "effectiveGasPrice": "0xfe",
      "from": "0x8fe6509e8e7954b4848772e989829a958805a2b4",
      "to": "0x2c0bfe46ca92779137718d47e2dd843d31d491b7",
      "contractAddress": null,
      "l1BaseFeeScalar": "0x7d0",
      "l1BlobBaseFee": "0x1",
      "l1BlobBaseFeeScalar": "0xdbba0",
      "l1Fee": "0x7a",
      "l1GasPrice": "0xa",
      "l1GasUsed": "0x640"
    },
    {
      "status": "0x1",
      "cumulativeGasUsed": "0x28309",
      "logs": [
        {
          "address": "0x000000000022d473030f116ddee9f6b43ac78ba3",
          "topics": [
            "0xda9fa7c1b00402c17d0161b249b1ab8bbec047c5a52207b9c112deffd817036b",
            "0x0000000000000000000000008fe6509e8e7954b4848772e989829a958805a2b4",
            "0x0000000000000000000000002c0bfe46ca92779137718d47e2dd843d31d491b7",
            "0x000000000000000000000000f969aee60879c54baaed9f3ed26147db216fd664"
          ],
          "data": "0x000000000000000000000000ffffffffffffffffffffffffffffffffffffffff0000000000000000000000000000000000000000000000000000ffffffffffff",
          "blockHash": "0x78d89323e5e46816c0e07328e7d1a403f3796f2c86930c4a7895f62f41049c0a",
          "blockNumber": "0x1ea51ff",
          "blockTimestamp": "0x68d7ff4b",
          "transactionHash": "0x2ff43ea5f9e05bfed076ee5b0b5e01415fd9e433dbdc6e0ca52bfa333f1d6c05",
          "transactionIndex": "0x3",
          "logIndex": "0x1",
          "removed": false
        }
      ],
      "logsBloom": "0x00010000000000002000000000000000000000000000000000400000000000000000000000000000000000000000000000000000000000000000000000080000000000000020000000000000000000000000000000000000020000001000000000000000000000000000000000000000000000000040000000800000000000000020000000000000000000000000000000000000000000000000000000000000000000000000000000000000000000000000000000000000000000080000000000000000000000000000000000000000000000000000000040000000000000000000000000000000000000000000000000000000000000000000000000002400",
      "type": "0x2",
      "transactionHash": "0x2ff43ea5f9e05bfed076ee5b0b5e01415fd9e433dbdc6e0ca52bfa333f1d6c05",
      "transactionIndex": "0x3",
      "blockHash": "0x78d89323e5e46816c0e07328e7d1a403f3796f2c86930c4a7895f62f41049c0a",
      "blockNumber": "0x1ea51ff",
      "gasUsed": "0xbaca",
      "effectiveGasPrice": "0xfe",
      "from": "0x8fe6509e8e7954b4848772e989829a958805a2b4",
      "to": "0x000000000022d473030f116ddee9f6b43ac78ba3",
      "contractAddress": null,
      "l1BaseFeeScalar": "0x7d0",
      "l1BlobBaseFee": "0x1",
      "l1BlobBaseFeeScalar": "0xdbba0",
      "l1Fee": "0x83",
      "l1GasPrice": "0xa",
      "l1GasUsed": "0x6bf"
    },
    {
      "status": "0x1",
      "cumulativeGasUsed": "0x8bcfb",
      "logs": [
        {
          "address": "0x00b036b58a818b1bc34d502d3fe730db729e62ac",
          "topics": [
            "0xdd466e674ea557f56295e2d0218a125ea4b4f0f6f3307b95f85e6110838d6438",
            "0x951baac1cf91257b35a0d4c63664f461e2d077352e63a168f68d330c68c9fddc",
            "0x0000000000000000000000000000000000000000000000000000000000000000",
            "0x0000000000000000000000002c0bfe46ca92779137718d47e2dd843d31d491b7"
          ],
          "data": "0x0000000000000000000000000000000000000000000000000000000000000bb8000000000000000000000000000000000000000000000000000000000000003c00000000000000000000000000000000000000000000000000000000000000000000000000000000000000000000000000001d87000000000000000000000000000000000000000000000000000000000000000000000000000000000002b9ba",
          "blockHash": "0x78d89323e5e46816c0e07328e7d1a403f3796f2c86930c4a7895f62f41049c0a",
          "blockNumber": "0x1ea51ff",
          "blockTimestamp": "0x68d7ff4b",
          "transactionHash": "0x1257d8c8a6e13f059b8866ab6426cb7a3c5d68f280ccd00b3d42c1ff929a864d",
          "transactionIndex": "0x4",
          "logIndex": "0x2",
          "removed": false
        },
        {
          "address": "0xf969aee60879c54baaed9f3ed26147db216fd664",
          "topics": [
            "0xddf252ad1be2c89b69c2b068fc378daa952ba7f163c4a11628f55a4df523b3ef",
            "0x0000000000000000000000000000000000000000000000000000000000000000",
            "0x0000000000000000000000008fe6509e8e7954b4848772e989829a958805a2b4",
            "0x00000000000000000000000000000000000000000000000000000000000015d4"
          ],
          "data": "0x",
          "blockHash": "0x78d89323e5e46816c0e07328e7d1a403f3796f2c86930c4a7895f62f41049c0a",
          "blockNumber": "0x1ea51ff",
          "blockTimestamp": "0x68d7ff4b",
          "transactionHash": "0x1257d8c8a6e13f059b8866ab6426cb7a3c5d68f280ccd00b3d42c1ff929a864d",
          "transactionIndex": "0x4",
          "logIndex": "0x3",
          "removed": false
        },
        {
          "address": "0x00b036b58a818b1bc34d502d3fe730db729e62ac",
          "topics": [
            "0xf208f4912782fd25c7f114ca3723a2d5dd6f3bcc3ac8db5af63baa85f711d5ec",
            "0x951baac1cf91257b35a0d4c63664f461e2d077352e63a168f68d330c68c9fddc",
            "0x000000000000000000000000f969aee60879c54baaed9f3ed26147db216fd664"
          ],
          "data": "0x00000000000000000000000000000000000000000000000000000000000209b80000000000000000000000000000000000000000000000000000000000036948000000000000000000000000000000000000000000000642c60af736339a2a2400000000000000000000000000000000000000000000000000000000000015d4",
          "blockHash": "0x78d89323e5e46816c0e07328e7d1a403f3796f2c86930c4a7895f62f41049c0a",
          "blockNumber": "0x1ea51ff",
          "blockTimestamp": "0x68d7ff4b",
          "transactionHash": "0x1257d8c8a6e13f059b8866ab6426cb7a3c5d68f280ccd00b3d42c1ff929a864d",
          "transactionIndex": "0x4",
          "logIndex": "0x4",
          "removed": false
        },
        {
          "address": "0x2c0bfe46ca92779137718d47e2dd843d31d491b7",
          "topics": [
            "0xddf252ad1be2c89b69c2b068fc378daa952ba7f163c4a11628f55a4df523b3ef",
            "0x0000000000000000000000008fe6509e8e7954b4848772e989829a958805a2b4",
            "0x00000000000000000000000000b036b58a818b1bc34d502d3fe730db729e62ac"
          ],
          "data": "0x000000000000000000000000000000000000000000a56fa5b99019a5c7fff589",
          "blockHash": "0x78d89323e5e46816c0e07328e7d1a403f3796f2c86930c4a7895f62f41049c0a",
          "blockNumber": "0x1ea51ff",
          "blockTimestamp": "0x68d7ff4b",
          "transactionHash": "0x1257d8c8a6e13f059b8866ab6426cb7a3c5d68f280ccd00b3d42c1ff929a864d",
          "transactionIndex": "0x4",
          "logIndex": "0x5",
          "removed": false
        }
      ],
      "logsBloom": "0x00000000000000002000000000000000000000000000000000400000040000000000000000000000000000000000000000000000001000000000000000000000000000000020000000000008000000000000000000000000020000001000000000000000020000000000000000004800000000000040000000800010000000000081000001000008000000000008000000000001000000000000000000200040000004000000000000000000000080000800000000000020000000000004000000000002080000000000000000000000000000000020000000000000000020014800000000000000000000000000000004000000000002000000000000002010",
      "type": "0x2",
      "transactionHash": "0x1257d8c8a6e13f059b8866ab6426cb7a3c5d68f280ccd00b3d42c1ff929a864d",
      "transactionIndex": "0x4",
      "blockHash": "0x78d89323e5e46816c0e07328e7d1a403f3796f2c86930c4a7895f62f41049c0a",
      "blockNumber": "0x1ea51ff",
      "gasUsed": "0x639f2",
      "effectiveGasPrice": "0xfe",
      "from": "0x8fe6509e8e7954b4848772e989829a958805a2b4",
      "to": "0xf969aee60879c54baaed9f3ed26147db216fd664",
      "contractAddress": null,
      "l1BaseFeeScalar": "0x7d0",
      "l1BlobBaseFee": "0x1",
      "l1BlobBaseFeeScalar": "0xdbba0",
      "l1Fee": "0x17e",
      "l1GasPrice": "0xa",
      "l1GasUsed": "0x139c"
    }
  ],
  "libraries": [],
  "pending": [],
  "returns": {},
  "timestamp": 1758986062,
  "chain": 1301,
  "commit": "9b68e67"
}